:020000040800F2
:1000000040780020D502000805430008AB3D0008F9
:10001000D54200088B1D0008DD4A000800000000E2
:10002000000000000000000000000000B3430008D2
:100030008D1D00080000000007430008B5430008BC
:10004000EF020008EF020008EF020008EF020008CC
:10005000EF020008EF0200088F1D0008EF02000801
:10006000951D00089B1D0008A11D0008EF02000857
:10007000EF020008EF020008EF020008EF0200089C
:10008000EF020008EF020008EF020008EF0200088C
:10009000EF020008EF020008EF020008EF0200087C
:1000A000EF020008EF020008EF020008EF0200086C
:1000B00061440008EF020008EF020008EF020008A8
:1000C000EF020008EF020008EF020008EF0200084C
:1000D000EF020008A5490008EF020008EF0200083F
:1000E000EF02000809430008EF020008EF020008D1
:1000F000EF020008EF020008EF020008EF0200081C
:10010000EF020008EF020008EF020008EF0200080B
:10011000EF020008EF020008EF020008EF020008FB
:10012000EF020008EF020008EF020008EF020008EB
:10013000EF020008EF020008EF020008EF020008DB
:10014000EF020008EF020008EF020008EF020008CB
:10015000EF020008EF020008EF020008EF020008BB
:10016000EF020008EF020008EF020008EF020008AB
:10017000EF020008EF020008EF0200080000000094
:10018000EF020008EF02000800F002F800F092F819
:100190000AA090E8000C82448344AAF10107DA45E2
:1001A00001D100F087F8AFF2090EBAE80F0013F0A2
:1001B000010F18BFFB1A43F001031847EC79000048
:1001C0000C7A0000103A24BF78C878C1FAD85207D8
:1001D00024BF30C830C144BF04680C6070470000C1
:1001E0000023002400250026103A28BF78C1FBD840
:1001F000520728BF30C148BF0B6070476E2900F01E
:100200005083702900F09384662907F05B8265298A
:1002100007F05882672907F05582612907F0548258
:1002200003681B0A28BF41F08001692900F03E8164
:10023000642900F03B81752900F038816F2900F0B6
:100240002084782900F05F84E92900F0BB83E42949
:1002500000F0B883F52900F0B583EF2900F01D8484
:10026000F82900F05E840368DB0928BF41F08001B3
:10027000632901F04780732901F04C80E32901F0E4
:100280005780F32901F05C80002070471FB507F00C
:1002900014FA01F0ABF804000020002106F02CFD58
:1002A000401C60600020002106F010FDE0601FBDD2
:1002B00010B510BD01F06CF81146FFF7E7FF05F02F
:1002C00001FD01F049F903B4FFF7F2FF03BC01F0AF
:1002D0008DF900000948804709480047FEE7FEE71E
:1002E000FEE7FEE7FEE7FEE7FEE7FEE7FEE7FEE7E6
:1002F00004480549054A064B704700005144000870
:1003000089010008407200204078002040740020DD
:100310004074002053EA020C00F069802DE9F04B94
:100320004FF00006002B1FBFB3FA83F503FA05F464
:1003300024FA05F65E4012BF1643B2FA82F502FABD
:1003400005F4C5F120051EBF22FA05FC44EA0C04A1
:10035000203556EA044C4FEA144418BF641C4FF091
:1003600000084FF00009904271EB030C39D30029CB
:1003700019BFB1FA81F701FA07F6B0FA80F700FA6F
:1003800007F6C7F120071EBF20FA07FC46EA0C0655
:100390002037B6FBF4FCA7EB0507103F07F01F0B57
:1003A000CBF120060CFA0BFB2CFA06F644BFB34641
:1003B0000026202FA4BF5E464FF0000B5BEA060C20
:1003C00008BF4FF0010B19EB0B09ABFB027C48EBAC
:1003D0000608C01B06FB02CC0BFB03CC71EB0C0127
:1003E000C1E70B46024641464846BDE8F08B13B5CF
:1003F0004FF000004FF00001AFF30080BDE81C405B
:10040000704700000FB41CB5084B06AA7B44694630
:100410000090059800F05FFA04460020694600F05D
:100420006DFA20461CBC5DF814FB0000ED040000D2
:100430000FB41CB5084B06AA7B446946009005988A
:1004400000F049FA04460020694600F057FA2046B9
:100450001CBC5DF814FB0000C104000070B504462C
:1004600085690068C10601D5302600E02026C00756
:1004700007D070BDD4E9012130469047206A401C66
:1004800020626D1EF6D570BD70B504468569007892
:10049000C00707D170BDD4E9012120209047206A10
:1004A000401C20626D1EF6D570BD00002DE9F041A4
:1004B0000646002410687529314616A510D000F0B4
:1004C0005CF9002802DA404213A507E031688A0788
:1004D00001D512A502E0490704D511A5012401E0C8
:1004E00000F054F900210A2206F1240709E0B0FBCC
:1004F000F2FCB0FBF2F302FB1C00303078541846DB
:10050000491C0028F3D123462A463046BDE8F04175
:1005100000F06EB9000000002D0000002B0000006C
:10052000200000002DE9F05F894604464FF0000AE4
:10053000DFF874B1FB44C0F820A02046E16888478A
:10054000002874D0252806D0D4E901219047206ADC
:10055000401C2062F1E700265F462046E16888479C
:100560002028054607DB312D05D2781910F8200C1C
:1005700008B10643F1E7B00701D526F00406C4F838
:100580001CA00027C4F818A02A2D09D0284604F082
:10059000ABFF38B304EB8708303DC8F8185019E0BA
:1005A00059F8041B204604EB87029161E1688847F3
:1005B000012F054618D1E069002820DA26F0200630
:1005C0001DE0D8F8180000EB800005EB4000303843
:1005D000C8F818002046E1688847054604F084FF03
:1005E0000028EED1012F0AD02E2D08D12046E16837
:1005F00088477F1C0546022F46F02006C4DBA06911
:10060000002803DA404246F00106A061F00701D05D
:1006100026F010066C2D0BD0682D09D04C2D39D04A
:100620006A2D35D0742D35D07A2D33D016E038E0D0
:10063000E1682F4620468847B842054609D16C2F0D
:1006400026D04FF48060E16806432046884705467F
:1006500004E06C2F1AD04FF4807006430DB3A5F15F
:100660004100192802D8203546F400664A4629463A
:10067000204626604E46FFF7C1FD80B101280BD011
:10068000F61D26F0070000F1080956E74020E4E7D0
:100690008020D8E70020D6E706F104094DE7284678
:1006A00052E7206ABDE8F09F0C74000010B5203AB4
:1006B000C0F00B80B1E81850203AA0E81850B1E81B
:1006C0001850A0E81850BFF4F5AF5FEA027C24BFD1
:1006D000B1E81850A0E8185044BF18C918C0BDE8C8
:1006E00010405FEA827C24BF51F8043B40F8043B91
:1006F00008BF7047D20728BF31F8023B48BF11F846
:10070000012B28BF20F8023B48BF00F8012B70479F
:100710004FF0000200B5134694469646203922BF9A
:10072000A0E80C50A0E80C50B1F12001BFF4F7AFE5
:10073000090728BFA0E80C5048BF0CC05DF804EBC7
:10074000890028BF40F8042B08BF704748BF20F835
:10075000022B11F0804F18BF00F8012B7047704733
:100760007047704710B500F0EDF9006810BD10B586
:10077000044600F0E7F9046010BD09684A0501D598
:1007800040B27047C905FCD500B2704709684A05F8
:1007900001D5C0B27047C905FCD580B2704770B5AD
:1007A0000C460546012A05D02878800600D5EA695E
:1007B000002302E0012305E05B1C934202D2E05CCF
:1007C0000028F9D1A869E618C01AA861286A184457
:1007D00028622846FFF742FE04E0D5E9012114F81B
:1007E000010B9047B442F8D32846FFF74DFE70BD89
:1007F0002DE9F0470D4699469246044600F124083B
:100800000168880604D5E06921F01001216000E04C
:100810000120A84201DD471B00E00027A1697A19E9
:1008200002EB0900081AA0612078C00602D4204615
:10083000FFF714FE002608E0D4E901211AF80600AB
:100840009047206A401C761C20624E45F4DB2078DD
:10085000C0060AD52046FFF701FE06E0D4E90121D3
:1008600030209047206A401C2062381EA7F1010703
:10087000F4DC07E0D4E9012118F805009047206A6C
:10088000401C2062281EA5F10105F3DC2046FFF77D
:10089000FBFD2078000602D50220BDE8F08701208C
:1008A000FBE711680268006A530501D508700AE089
:1008B000D30501D5088006E0130603D5C217C1E9A8
:1008C000000200E0086001207047000001694A1C36
:1008D00002610878704700B58FB0CDE90131002181
:1008E000059105497944CDE9031011466846FFF7A3
:1008F00019FE0FB000BD0000E5FFFFFF0A6802F817
:10090000010B0A60704700002DE9FF5F15468A461B
:100910000446DFF8AC80F8440027D8E900103E46D2
:10092000CDE9001010E03AF816106A4602A800F06F
:100930000BFD411C07D02178890603D5E2693918DF
:1009400091420DD80744761C2078800602D5E069D4
:10095000B84205DDAE42E6DB3AF816000028E2D1E7
:10096000A069C01BA0612046FFF778FDD8E9001000
:10097000CDE90010002017E03AF818106A4602A8E6
:1009800000F0E2FCB0F1FF3F81460BD000250DF1F5
:10099000080B05E0D4E901211BF8050090476D1C08
:1009A0004D45F7D308F10100B0428046E4DB206AF0
:1009B000384420622046FFF767FDBDE8FF9F000036
:1009C0003E7000002DE9F0418046D21D22F0070262
:1009D0000025D2E90002F52915A614D0011E72F1F6
:1009E000000106DA0023D0EB030063EB020211A63C
:1009F00008E0D8F800108B0701D50FA602E04907E0
:100A000001D50EA601251146002408F1240704E0B3
:100A100000F09CF830323A55641C50EA0102F7D1DC
:100A20002B46324621464046BDE8F041FFF7E0BE86
:100A3000000000002D0000002B000000200000003E
:100A400030B4002100F1240408E002F00705D208C8
:100A5000303542EA4372DB086554491C52EA03050B
:100A6000F3D10468002310A2250707D5A40600D4FB
:100A700021B1C46901230DA2641EC46130BCFFF71B
:100A8000B7BE10B5044621461068FFF77FFE024648
:100A90002046BDE810400023D2E7D21D22F0070116
:100AA000D1E90023CCE70000000000003000000086
:100AB000F0B40D460188090502D5214C7C4402E0C2
:100AC0001F4C7C440E34002100F1240608E002F0A3
:100AD0000F071209E75D42EA03721B097754491CAC
:100AE00052EA0307F3D102780023120704D5702DD0
:100AF00006D009B1022311342246F0BCFFF778BEBC
:100B000001231034F8E770B504460D4621461068FD
:100B1000FFF73CFE024629462046BDE87040002310
:100B2000C6E7D21D22F00703D3E90023C0E703681C
:100B3000126843F0200303600823C3610023B7E772
:100B4000A06E000000487047DC71002030B5B0F1A5
:100B50000A024FEA900E71F100034EEA817EB0EB7B
:100B60000E0061EB91014FEA101E4EEA017E10EB80
:100B70000E0041EB11114FEA102E4EEA016E10EB00
:100B80000E0041EB11214FEA104E4EEA014E10EBE0
:100B90000E0041EB1141401841F100014FEAD00035
:100BA00040EA41704FEAD10110EB80054FEA810421
:100BB00044EA907444EB01046D1944EB0404521BA5
:100BC000A3414FF0000348BF0A3200D530BD401C9E
:100BD00041F1000130BD70472DE9FF4F0C461E4624
:100BE0004FF0FF378BB0D2E90001DDF860800A904A
:100BF0008A46C1F30A5505B93D46002108464FF023
:100C00000000BAF1000F00F4400005DA00EB8000AC
:100C10004FF4400101EA50004FEA9059B9F1010F39
:100C200000DDB9460A9850EA4A000ED044F610504A
:100C3000A5F2FF3545432F14B8F1000F1ED07542C1
:100C4000291E1EDDC9F100021CE0B8F1010F4FF0B2
:100C5000000001D0302103E0F24305E02154401CA4
:100C6000B042FBDB30460022002121540B99C1F831
:100C70000880C1E900200FB0BDE8F08FBD1B6D1CDE
:100C8000DEE74A4600DA694206A800F0F3FB06AB4D
:100C900093E8070003AB83E8070050460A9900F089
:100CA000ACFC8DE80700A0F500501F3800900398B9
:100CB000002D0ADD42F21F014A460844002303A921
:100CC0000390684600F015FF09E0A0F500504A4681
:100CD0001F38002303A90390684600F01FFF8DE82A
:100CE00007000004000C03D04FF0FF30410800E083
:100CF0001046B8F1000F03D00022009215461EE006
:100D0000751E05D4FFF722FF303262556D1EF9D5EE
:100D1000B3460122084302D000227F1C04E0207861
:100D2000302801D100227F1E002A099784D01DE0BF
:100D3000112D07DAFFF70AFF303262556D1C50EAB9
:100D40000102F5D1084302D00098C8B10EE000219D
:100D5000681E05E0235C625C63542254401E491CFB
:100D60008142F7DBAB46A81B401E0990002004F827
:100D70000B000B98099AC0F80880C0E9002B7AE7AD
:100D800011264FF0000857E72DE9F04F884604463A
:100D9000D21D22F0070191B0D1E90001CDE90A018D
:100DA00003F09DFE02460B98C00F01D02D2007E0F6
:100DB0002068810701D52B2002E0202101EAC00034
:100DC000032A099001D0072A05DB03464146204645
:100DD00000F010FB0BE12078800601D5E06900E00F
:100DE0000620B8F1650F814606D0B8F1660F18D01D
:100DF000B8F1670F70D131E00020B9F1110F009008
:100E000001DB112301E009F101030AAA01A90CA8E1
:100E1000FFF7E2FEDDE90C70002609F101058346CB
:100E200047E001204B4600904FF000470AAA01A975
:100E30000CA8FFF7D1FEDDE90DB00C995D46002648
:100E400010B909F101000D18B9EB050003D4C0F188
:100E5000FF3609F10105A5EB09002BE0B9F1010FFF
:100E600001DA4FF001090020B9F1110F0090484656
:100E700001DD112300E003460AAA01A90CA8FFF72F
:100E8000ABFEDDE90C704D46002683462078000756
:100E90000AD4AB4500DA5D4601A8012D04DD4119F5
:100EA00011F8011C302907D04F4502DA17F1040F61
:100EB00004DA012082460FE06D1EEEE7002F02DC0F
:100EC000ED1B3E4403E0781CA84200DD7D1CB81BEE
:100ED00000F1010A4FF000472078000703D4AA452B
:100EE00001DB4FF0FF3A0021B7F1004F0DF143084D
:100EF0008DF8431024D002202B23002F01DA7F42EB
:100F00002D230A21021EA0F1010000DC5FB197FB36
:100F1000F1FC97FBF1F201FB1C7C17460CF1300C45
:100F200008F801CDEEE7A8F101000370218809055A
:100F300001D5452100E06521A0F1010800F8011C60
:100F400009980FA9A1EB0807FF1D00B10120411965
:100F500001EBEA70A1693844081A401EA0612078AC
:100F6000C00602D42046FFF779FA099828B1D4E9DF
:100F700001219047206A401C20622078C00622D5BB
:100F80002046FFF76BFA1EE0002E04DBB34502DDBE
:100F900001A8805D00E03020D4E901219047206A5B
:100FA000401C2062761CAAF101005FEA000A0AD107
:100FB00000F01CFAC0680168405CD4E90121904748
:100FC000206A401C2062281EA5F10105DCDC07E038
:100FD000D4E9012118F8010B9047206A401C2062D7
:100FE000381EA7F10107F3DC2046FFF74DFA032076
:100FF00011B041E62DE9F04F04460D46D21D22F016
:10100000070089B0D0E900974846394603F067FDEC
:101010000246F80F01D02D2307E02068810701D593
:101020002B2302E0202101EAC0038DF820300BB110
:10103000012000E00020032A824601D0072A04DBB9
:101040002946204600F0D6F93FE12078800601D4F9
:101050000D2500E0E569C7F30A560D2D49DA002198
:101060004FEA175B08464FF00000002F00F44000E5
:1010700007DA00EB80004FF4400100EBD07001EA8A
:1010800060008115012901DD4FF0FF3100224FEA98
:10109000850CBCF1180F06D31346ACF118004FF0C5
:1010A0008052C24003E04FF4801323FA0CF30CF19A
:1010B0000C0CBCF1200F04D3ACF1200C09FA0CF09D
:1010C00001E007FA0CF000294FF0004801DD18B9E3
:1010D0000FE00ED140450CD319EB02095F4121B955
:1010E000404502D19F4329EA0209BBEB175F00D0BC
:1010F000761C2088000502D57B48784402E07A48B7
:101100007844193808AA302302F80A30037C0AF11F
:101110000101002E0AF1020A53546A4602DC4FF024
:10112000300101E04FF031014FF001088DF800105F
:1011300002D0A6F2FF3603E059EA470100D06B4E19
:10114000002D02DC2178090704D54FF002082E217A
:101150008DF80110C44600210BE0C7F303433F01A3
:10116000C35C491C6D1E02F80830052908F101080E
:1011700001DA002DF1DC00210CE000EB1973491CB1
:101180001B786D1E082902F808304FEA091908F18A
:10119000010801DA002DF0DC21688B0602D516E08B
:1011A000A8F10108E04505DD02EB080313F8013C56
:1011B000302BF5D0B8F1000F09DD02EB080313F86E
:1011C000013C2E2B03D1090701D4A8F10108002D01
:1011D00005DD3E2102F808106D1E08F10108407C73
:1011E000002E02F8080008F1010804DA2D207642EA
:1011F00002F8080002E02B2002F808000A214FF450
:101200007A70864208F101080BDB96FBF0F330336D
:1012100002F8083096FBF0F308F1010800FB1366B2
:1012200001E0642E0CDB642096FBF0F3303302F80F
:10123000083096FBF0F308F1010800FB136601E0AB
:101240000A2E06DB96FBF1F0303002F8080008F1B8
:10125000010896FBF1F001FB1060303002F8080045
:10126000A16908F1010808EB050202EB0A00081A5F
:10127000A0612078C00602D42046FFF7EFF8216A6B
:1012800008AE01EB0A00206204E0D4E9012116F85F
:10129000010B9047BAF1010AF7D22078C00602D5B7
:1012A0002046FFF7DBF86E4609E016F8010B3E28F2
:1012B0000FD0D4E901219047206A401C2062B8F188
:1012C0000108F2D22046FFF7DFF809B00320BDE89D
:1012D000F08F206A2844206203E0D4E90121302005
:1012E00090476D1EEBD3F8E7BD69000002FCFFFFDD
:1012F00010B5436913B1AFF3008001E0FFF74FFA77
:10130000012010BD127800F124010A7000224A70F9
:101310000122EDE711684FF0FF32E9E710B54369AC
:1013200013B1AFF3008001E0FFF7EEFA012010BD2A
:10133000128800F1240182840022C2840122EDE798
:1013400011684FF0FF32E9E770B516460C460546C6
:1013500000F044F8036893F80101012806D0FF2C3F
:101360000FD8185D68B101202C7070BDD3F807014B
:101370003246214603F2071303442846BDE8704075
:1013800018474FF0FF3070BD00487047DC710020F7
:101390007546FFF7F9FFAE4605006946534620F053
:1013A0000700854618B020B5FEF7A2FFBDE8204033
:1013B0004FF000064FF000074FF000084FF0000B11
:1013C00021F00701AC46ACE8C009ACE8C009ACE8C4
:1013D000C009ACE8C0098D467047000010B500F0A8
:1013E00005F8001D10BD00BF1159000000487047EE
:1013F000FC7100202DE9F0411F46044603260168D8
:10140000072A01F4006004DB08B116A505E016A563
:1014100003E008B115A500E015A521F0100020603B
:10142000A069C01EA0610FB1401EA0612046FFF759
:1014300015F84FB1D4E9012138469047206A401C85
:101440002062C01C206206E0206AFAE7D4E901218C
:1014500015F8010B9047761EF8D22046FFF714F8D6
:10146000BDE8F0814E414E006E616E00494E46006F
:10147000696E66002DE9F047814616468AB0354808
:1014800078440DC88DE80D0032487844801C03ACC8
:101490000DC884E80D0041F69B300844372190FBCD
:1014A000F1F290FBF1F5A5F1800501FB12041B3C64
:1014B00002D56442012000E00020DFF898A08046B9
:1014C0000027FA44AAF1BE0A0EE0E0070AD032462D
:1014D000684607EB470101230AEB810100F01EFB80
:1014E0008DE8070064107F1C002CEED1194F7F445B
:1014F000AE3F19E0E80715D007EB04100DF1180A0C
:1015000090E80E008AE80E00C068F04201D19819F8
:1015100008903246012306A903A800F0FFFA03ABA6
:1015200083E807006D10641C002DE3D14FF0010328
:1015300032466946B8F1000F03A802D000F0D9FA8C
:1015400001E000F0EBFAC9E90001C9F808200AB08F
:10155000BDE8F087C866000010B50446AFF3008010
:101560002046BDE81040FEF7AEBE00004FF0013C43
:1015700050F8042B51F8043B9A4221D1A2EB0C0302
:10158000934313EACC1317D150F8042B51F8043BC2
:101590009A4215D1A2EB0C03934313EACC130BD15F
:1015A00050F8042B51F8043B9A4209D1A2EB0C03EA
:1015B000934313EACC13DBD04FF00000704700BF19
:1015C000D01A01BAB1FA81F101F0180122FA01F042
:1015D000CB40C1F12001DBB2C0B2C01A2CFA01F33A
:1015E000D11A914311EAC311E6D17047014918207D
:1015F000ABBEFEE72600020070475FEA400C08BF62
:1016000091F0000F4FEA8C234FEAC12243EA515177
:101610004FEA1C5018BF00F5F0404FEA300018BFE9
:1016200041F000415FEA6C5C00F02980BCF1FF3FB3
:1016300008BF40F080407047130C06BF12044FF003
:10164000100C4FF0000C130E04BF12020CF1080C2A
:10165000130F04BF12010CF1040C930F04BF92008E
:101660000CF1020CD30F04BF52000CF1010C114617
:101670004FF00002A0F11F00A0EB0C00704711F02A
:10168000004F08BF704731F000413FF4D5AF0B0C5D
:1016900006BF09044FF0100C4FF0000C0B0E04BFF6
:1016A00009020CF1080C0B0F04BF09010CF1040C2A
:1016B0008B0F04BF89000CF1020CCB0F04BF490053
:1016C0000CF1010CCCF12003A0EB0C0022FA03F387
:1016D00002FA0CF241EA030100F10100704720F028
:1016E0007F4C80EA030023F07F47ACEB070303F550
:1016F0007C5300F0004003F1FF032DE980494FEADD
:10170000154B09B44FEA144325EA0B4E24EA03486B
:101710000FF2042606EB132749083E785FEA3202EF
:1017200003FB0667C7F5000707FB06F64FEA5437C9
:101730004FEAD64606F1020607FB066CCCF1005CC8
:101740004FEA1C472CEA074C07FB06F40CFB06F596
:1017500004EB15464FEA961634BF00204FF00040C8
:101760004FEAD13706FB07FC4FEA1C4C0CFB0BF78A
:10177000D21B03FB0CF761EB07010CFB0EF7B0EB80
:10178000074072EB17420CFB08F734BFA2EB07428D
:10179000B2EB074261EB17414FEA0C444FEA910765
:1017A00006FB07FC4FEA1C4C0CFB0BF7B0EBC740E9
:1017B00072EB573203FB0CF734BFA2EBC742B2EB1C
:1017C000C74261EB57310CFB0EF7B0EBC70072EB71
:1017D00057720CFB08F734BFA2EBC702B2EBC7028B
:1017E00061EB5771039F4FEA816141EA921104EB6B
:1017F000CC044FEAD1374FEA826206FB07FC42EA8B
:1018000090124FEA80604FEA1C4C0CFB0BF7D21B86
:1018100003FB0CF761EB07010CFB0EF7B0EB074085
:1018200072EB17420CFB08F734BFA2EB0742B2EB96
:10183000074261EB17414FEA8C554FEA910704EBE1
:101840009C2406FB07FC4FEA1C4C0CFB0BF7B0EB8F
:10185000C74072EB573203FB0CF734BFA2EBC74211
:10186000B2EBC74261EB57310CFB0EF7B0EBC70090
:1018700072EB57720CFB08F734BFA2EBC702B2EB56
:10188000C70261EB577115EB4C254FEA816141EAC4
:1018900092114FEA82624FEAD13742EA901206FB78
:1018A00007FC44F100044FEA80604FEA1C4C0CFB3B
:1018B0000BF7D21B03FB0CF761EB07010CFB0EF7D8
:1018C000B0EB074072EB17420CFB08F734BFA2EBFA
:1018D0000742B2EB074261EB174115EB1C154FEACB
:1018E000813141EA92414FEA823242EA90424FEA24
:1018F00080304FEA0C7644F1000448EA03434EEA94
:101900000B484FF0000EB2EB080C71EB030724BF3D
:10191000624639464EEB0E0E4FF0000B0018524156
:1019200049414BEB0B0BB2EB080C71EB03077BF15E
:10193000000B24BF624639464EEB0E0E4FF0000BF3
:101940000018524149414BEB0B0BB2EB080C71EB09
:1019500003077BF1000B24BF624639464EEB0E0EA7
:1019600051EA020718BF46F0010616EB0E7655F154
:10197000000254F1000103D5BDE88901BDE80088EB
:10198000BDE88901BDE80048B619524141EB0101AB
:10199000A3F10103704780807F7E7D7C7B7A79781C
:1019A000777676757473727171706F6E6E6D6C6C24
:1019B0006B6A6A69686867666665646463636261C6
:1019C0006160605F5F5E5E5D5D5C5C5B5B5A5A5947
:1019D00059585857575656555555545453535252B3
:1019E0005251515050504F4F4F4E4E4D4D4D4C4C0B
:1019F0004C4B4B4B4A4A4A49494948484847474754
:101A00004746464645454544444444434343434290
:101A1000424242414141002B9C4630D477002BD0BA
:101A20001CB54FEA370703B44FF010004FF0100118
:101A3000BAF1000F06D0BCF1000FDCBF40F0080087
:101A400040F008014FF000000FBCBDE810400BF162
:101A5000010BBBF1010F08BF5FEA170722BF12F1AC
:101A6000010211F101014FF0004143F1000300F0C8
:101A7000004043EA00007047F9D35708D0E746EA30
:101A8000064613F1400F4FEA16461FDD13F1200FF3
:101A9000DFBF16430A46002120335B42BED0C3F1AC
:101AA000200746EA064602FA07F74FEA164646EAD4
:101AB0000706C3F1200722FA03F201FA07F721FA19
:101AC00003F14FF0000342EA0702A7E746EA0206E5
:101AD00046EA06464FEA164646EA0106BCBF46EA13
:101AE0000646360C4FF000034FF000024FF00001A5
:101AF00094E72DE9804C9A46934670B491E83800FB
:101B000007C831EA400C48BF34EA430C03D5FFF75D
:101B1000E6FDFFF780FFF0BCBDE8008C2DE9804CAE
:101B20009A46934670B491E8380007C810F0804F89
:101B300008BF13F0804F03D100F005F8FFF76BFFEB
:101B4000F0BCBDE8008C20F07F4780EA030023F062
:101B50007F4C07EB0C03A3F57C5300F00040A3F18E
:101B6000FE0392F0000F00F0B38095F0000F00F03C
:101B700077802DE901494FEA11404FEA144621EAE6
:101B8000004800FB06FC24EA064708FB06F607FBB4
:101B900008F800FB07F718EB06484CEB164C4FEA29
:101BA000124B18EB07484FEA15464CEB174022EA58
:101BB0000B4E0BFB06FC25EA06470EFB06F607FB61
:101BC0000EFE0BFB07F71EEB064E4CEB164C4FF0D0
:101BD00000061EEB074E4CEB174B18EB0B0840F1C1
:101BE000000018EB0E0B58EB000840F100008F1AB4
:101BF0004FF000013CBFC943661B14BFB5EB040C9A
:101C000000213CBFC943F61B4FEA17444EEA8E0E33
:101C100027EA04454FEA1C4704FB07622CEA074CFD
:101C200005FB07F70CFB05F604FB0CFC16EB07465F
:101C300042EB174216EB0C4642EB1C421BEB06062E
:101C400058EB0202414146EA9E0601D5BDE80189F2
:101C5000B619524141EB0101A3F10103BDE801892D
:101C60004FEA14454FEA114724EA054621EA074C9A
:101C700005FB07F406FB07F70CFB06F105FB0CFC64
:101C800011EB074144EB17444FEA124711EB0C41AB
:101C900044EB1C4422EA074C05FB07F206FB07F75E
:101CA0000CFB06F605FB0CFC16EB074642EB174255
:101CB00016EB0C4642EB1C456A1854F1000148BF74
:101CC0007047B619524141EB0101A3F1010370477E
:101CD00095F0000F37D04FEA11424FEA144721EA3E
:101CE000024624EA074C02FB07F106FB07F70CFB50
:101CF00006F402FB0CFC14EB074441EB17414FEADE
:101D0000154714EB0C4441EB1C4125EA074C02FB40
:101D100007F506FB07F70CFB06F602FB0CFC16EBBF
:101D2000074645EB174516EB0C4645EB1C421219CE
:101D300051F1000148BF7047B619524141EB010112
:101D4000A3F1010370474FEA14454FEA114724EA13
:101D5000054621EA074C05FB07F106FB07F70CFBDC
:101D600006F24FF0000605FB0CFC12EB074241EBBC
:101D7000174112EB0C4251EB1C4148BF70479218BF
:101D800041EB0101A3F101037047FEE77047012019
:101D900000F05ABA042000F057BA082000F054BAF4
:101DA000102000F051BA72B6FEE700002DE9F04FA6
:101DB00088B060F30F05DDE911C861F30F0462F329
:101DC0001F456CF30F0763F31F4468F30F0690423F
:101DD00007DD62F30F0563F30F0460F31F4561F342
:101DE0001F4428B2604508DD60F30F0720466CF3FE
:101DF0000F0568F30F0460F30F06281439B2884208
:101E000008DD60F30F07201466F31F4461F31F45DC
:101E100060F30F060FFA85F83FB2A7EB08000FFA40
:101E200080FA2D14A5EB080000B20790781B00B2D1
:101E3000059030B2011B0FFA81F921140A1B0FFA29
:101E400082FB421A12B2049217FB04F208FB10261E
:101E500015FB04F208FB112217FB01F105FB101022
:101E60000692039023E000BF19FB086191FBFAF092
:101E7000069900B21BFB0812079992FBF1F109B217
:101E8000814202DA0246084611460DF14C0C9CE8EC
:101E90001C008DE81C008BB281B21FFA88F21FFA79
:101EA00088F003F01BFD08F101080FFA88F845459A
:101EB000DADC1FE019FB056191FBFAF0DDE90312A2
:101EC00000B212FB0512059992FBF1F109B28142B1
:101ED00002DA0246084611460DF14C0898E81C004B
:101EE0008DE81C008BB281B2AAB2A8B203F0F6FC56
:101EF0006D1C2DB2AF42DDDC08B0BDE8F08F2DE9DE
:101F0000F0410446876D00F0A9FA064694F83500C2
:101F10000025022806D08020606584F83450012016
:101F2000BDE8F0812068016821F016010160206899
:101F3000416921F080014161206C08B9A06C20B199
:101F40002068016821F0080101602068016821F023
:101F5000010101600CE000F081FA801B052807D91F
:101F600020206065032084F8350084F83450D7E7DA
:101F700020680068C007EED194F85C103F208840CC
:101F8000B860012084F8350084F834500020C7E799
:101F900090F83510022903D0802141650120704757
:101FA000052180F835100068016821F00101016009
:101FB0000020704770B5044600F050FA0546601CDA
:101FC00002D004480078044400F048FA401BA042C4
:101FD000FAD370BD500000202DE9F0410746974824
:101FE000974C8178E1714178A1710078607104F1BA
:101FF0003C008178217241786172C178A1720078C9
:10200000E07200F02BFAA16A411AC82930D30025EA
:10201000A0624CF25030042F2CD00126012F35D075
:10202000082F72D0102F23D10221491C8142FCDBE2
:10203000217F3B20012969D0E17E012967D0607FA3
:10204000012872D0A07F012870D0E07F01286ED0D7
:1020500094F8200001286BD094F82100012807D1C2
:10206000E07A401E40B2E072012801DA0720E072F7
:10207000BDE8F0810221491C8142FCDBE078401C74
:10208000C0B2E0700328F3D1E570F1E70221491CEA
:102090008142FCDBA078401CC0B2A07007280AD99E
:1020A000A5700121674800F048FFA0F54851F239BA
:1020B00001D004F069F8A078012814D0022816D0C5
:1020C00003281DD0042823D0052827D0062830D087
:1020D0000728CDD1257704F81B5FA570E570257121
:1020E0006571A671C4E7267704F81B5F02E02577C7
:1020F00004F81B6FA570E57025716571A571B7E7D0
:10210000257704F81B5FA670F5E71AE066E06DE03E
:10211000257704F81B5FA570E670EDE7257704F8D6
:102120001B5FA570E5702671E7E767E06FE077E079
:102130007FE0257704F81B5FA570E5702571667157
:10214000DCE70221491C8142FCDB207F01281BD0F7
:10215000E07E012820D0607F012824D0A07F0128C4
:1021600029D0E07F01282ED094F82000012832D019
:1021700094F82100012888D1E07A401C40B2E07236
:102180000728AFDDE67273E7E079401C40B2E071EA
:102190003B28A7DDE5716BE7A079401C40B2A07138
:1021A0003B28ABDC64E76079401C40B260711728C3
:1021B00098DD65715CE7207A401C40B220721F28D0
:1021C00090DD267254E7607A401C40B260720C28A1
:1021D00088DD66724CE7A07A401C2CE0E179491E4C
:1021E00049B2E17100298ADAE07141E7A179491E1B
:1021F00049B2A1710029C6DAA07139E76079401EA1
:1022000040B260710028BEDA1720607130E7207A92
:10221000401E40B220720028B5DA1F20207227E746
:10222000607A401E40B260720028ACDA0C20607206
:102230001EE7A07A401EA0721AE70000C8710020B5
:1022400000000020B4700020044910B50A68024262
:1022500002D00860FFF7C0FE10BD0000143C014032
:102260002DE9F84FDFF8BCA10022012503264FF02D
:102270000F090AF1040BAAF1040E00BF0B6805FA5E
:1022800002F42340A34270D10F7907F00307012F16
:1022900001D0022F16D187684FEA420806FA08FCDF
:1022A00027EA0C07D1F80CC00CFA08FC4CEA070C22
:1022B000C0F808C04768A7430C79C4F300149440E1
:1022C0003C4344600C79E443A4070AD0C4684FEA55
:1022D000420C06FA0CF7BC438F6807FA0CF7274349
:1022E000C7600C7904F00304022C12D1D40800EB6F
:1022F000840CDCF820405707FF0E09FA07F824EA9F
:102300000804D1F8108008FA07F848EA0408CCF865
:10231000208004684FEA420C06FA0CF7BC430F79A0
:1023200007F0030707FA0CF7274307604C6814F41B
:10233000403F70D03C4C276847F4804727602468B2
:1023400022F0030704F480440094384C07EB040C9B
:10235000DCF8084897074FEA177809FA08F7BC43F2
:10236000334FB84202D1002724E054E0314FB84245
:1023700001D101271EE0304FB84201D1022719E0F8
:102380002E4FB84201D1032714E02D4FB84201D19E
:1023900004270FE02B4FB84201D105270AE02A4F4E
:1023A000B84201D1062705E0284FB84201D10727DE
:1023B00000E0082707FA08F72743CCF80878DAF88E
:1023C00000405746D1F804C09C435FEACC2C00D5AE
:1023D0001C433C60DBF800405F46D1F804C09C43DE
:1023E0005FEA8C2C00D51C433C60DEF80040774649
:1023F000D1F804C09C435FEA8C3C00D51C433C6090
:10240000084F083F3C68D1F804C09C435FEACC3CCD
:1024100000D51C433C60521C102AFFF42FAFBDE8CE
:10242000F88F0000083C0140443802400030014071
:10243000000002400004024000080240000C02407C
:10244000001002400014024000180240001C02402C
:102450000AB1816170470904FBE700000148806808
:10246000704700005000002070B5040025D094F89B
:102470003D00002520B984F83C50204600F04EF97C
:10248000242084F83D002068016821F001010160EA
:102490002068016841F4004101602068016821F46E
:1024A0000041016000F040FB4D4A6168914201D853
:1024B0004C4900E04C49884201D2012070BD4B4993
:1024C0002368B0FBF1F15E6826F03F060E435E60C4
:1024D0006368934206D94FF4967359434FF47A7365
:1024E000B1FBF3F12368491C1E6A26F03F06314315
:1024F00019626168914210D84900401EB0FBF1F2A8
:10250000521CC2F30B02042A01D2042022E0B0FBC9
:10251000F1F0401CC0F30B001CE0A268F2B301EB29
:10252000C10303EB0116431EB3FBF6F35B1C43F43C
:1025300080431B0549D092B301EBC10202EB0111AC
:10254000401EB0FBF1F0401CC0F30B0040F4804093
:1025500040F400402168CA694CF6FF739A43104367
:10256000C861D4E9071001432068026822F0C00264
:1025700011430160D4E9030101432068826848F2F5
:10258000FF339A4311438160D4E905010843216870
:10259000CA6822F0FF021043C86001E00EE016E0B6
:1025A0002068016841F0010101602564202084F861
:1025B0003D00256384F83E50002070BD01EB4106CC
:1025C000431EB3FBF6F35B1CB3E70120C2E701EB4C
:1025D0004101401EB0FBF1F0401CC0F30B00B7E717
:1025E000A086010080841E0000093D0040420F00CB
:1025F0002DE9F84F1F4690468A460446DDF828909C
:10260000FFF72CFF054694F83D0020287FD11923C1
:10261000012240492046009501F054FC002876D163
:1026200094F83C00012872D0012084F83C00206816
:102630000168C90703D1016841F001010160206808
:10264000016821F400610160212084F83D00102020
:1026500084F83E0000262664C4F824806785608DD7
:1026600020852D48E0622B464A465146204601F01F
:10267000B5FB90B9206841698069009036E02A4630
:102680004946204601F09DFC50B1206C042804D13D
:102690002068016841F4007101600120BDE8F88FF5
:1026A000606A216800780861606A401C6062618D20
:1026B000491E6185218D491E89B221852268536991
:1026C000DB435B070BD451B100781061606A401C9A
:1026D0006062608D401E6085208D401E20852A46E8
:1026E0004946204601F0C8FB0028CED1208D0028A5
:1026F000C5D154F83D0B016841F400710160202000
:1027000004F81E09E67766770020C7E7FFE7022096
:10271000C4E70000020010000000FFFF10B586B003
:10272000044614216846FDF7F3FF134920688842E8
:1027300020D112480021026842F0020202600068C3
:1027400000F002000590C02000901220CDE90101A8
:10275000032003900420049069460948FFF780FD98
:1027600006481030016841F400110160006800F46F
:102770000010059006B010BD0054004030380240F3
:102780000004024002488168027811448160704769
:10279000500000200B4810B5016841F40071016041
:1027A000016841F480610160016841F48071016059
:1027B000032000F06FF80F2000F006F800F024F876
:1027C000002010BD003C024070B50D4D04464FF492
:1027D0007A712878B1FBF0F00A490968B1FBF0F092
:1027E00000F07DFD48B9102C07D200222146501E72
:1027F00000F030F800206C6070BD012070BD00005A
:10280000500000205C0000200A4808B5016841F42F
:1028100080410160006800F4804000900548001F7E
:10282000016841F080510160006800F08050009024
:1028300008BD000044380240002809DB00F01F02F8
:10284000012191404009800000F1E020C0F8001112
:1028500070470000F0B40E4B1B680C46C3F3022314
:10286000C3F10705042D00D90425191D072901D23C
:10287000002300E0DB1E012606FA05F1491E214077
:1028800099409E40761E16403143F0BC02F03FB99D
:102890000CED00E0064900F0070208684FF6FF0360
:1028A000184040EA0220034A1043086070470000C5
:1028B0000CED00E00000FA052DE9F843054600683C
:1028C0004FF00109C1074FF0000601D1400727D59D
:1028D000DFF80C81C8F86860FFF7C0FD0746414C7F
:1028E00005E000BFFFF7BAFDC01B022857D82068DB
:1028F0000001F7D468688101287A41EA00703949FB
:1029000084310860C8F86890FFF7A8FD074604E026
:10291000FFF7A4FDC01B022841D820680001F7D5AD
:102920002878800752D52F484030016841F0805107
:10293000016000682C4C00F080500090206840F44A
:1029400080702060FFF78AFD074604E0FFF786FDF0
:10295000C01B022823D82068C005F7D5214C70344D
:10296000206810F4407020D0A98901F440718142A0
:102970001BD020681D4920F44070C1F800900E6003
:1029800020602068C00710D0FFF768FD064641F2BE
:10299000883707E0FFF762FD801BB84202D90320A9
:1029A000BDE8F88320688007F4D5E9680D48C1F3D5
:1029B00001220830032A0BD0016821F4F8110160CC
:1029C0002068A989C1F30B01084320600020E7E7D4
:1029D0000268074B22F4F81219400A430260EFE73D
:1029E000000047420038024000700040400E47425D
:1029F000FFFCFF0F2DE9F0470E46050065D0DFF81C
:102A00001481D8F80000F7B200F00700B04207D2F6
:102A100088F80070D8F8000000F00700B04254D1E8
:102A200028683D4C810712D5400703D5206840F443
:102A3000E05020602878000703D5206840F460400B
:102A400020602068A96820F0F00008432060287802
:102A5000C0072DD0304968680839012812D00228F3
:102A600013D0032811D00968890700292DDA2168BD
:102A700021F0030101432160FFF7F0FC814641F2A0
:102A8000883A0EE009688903EFE709688901ECE7F5
:102A9000FFF7E4FCA0EB0901514502D90320BDE892
:102AA000F0872068696800F00C00B0EB810FEFD16F
:102AB000D8F80010404601F00701B14207D907706D
:102AC000006800F00700B04201D00120E7E7287855
:102AD000400705D52068E96820F4E05008432060ED
:102AE0002878000706D52068296920F4604040EA6C
:102AF000C100206000F038F82168084AC1F30311D2
:102B0000515CC8400649086006480068FFF75CFE53
:102B10000020C4E7003C0240083802402C7900083D
:102B20005C00002054000020044805490068096842
:102B3000044AC1F38221515CC84070475C00002008
:102B4000083802403C7900080448054900680968D3
:102B5000044AC1F34231515CC84070475C00002018
:102B6000083802403C790008154810B5006810F09C
:102B70000C02144813D01449042A0FD0082A0ED18D
:102B80000F4C241F2268236802F03F025B0207D526
:102B90002068C0F38810A0FB010106E0084610BDC4
:102BA0002168C1F38811A1FB00010023FDF7B2FBEE
:102BB0002168C1F30141491C4900B0FBF1F010BD8F
:102BC000083802400024F40040787D012DE9F84FD8
:102BD00004006ED02078DFF84C93C007A9F10405FB
:102BE0004AD009F104000168C1F38101012908D02C
:102BF0000068C0F3810002280AD1D9F80000400221
:102C000006D52868800337D560680028E1D033E016
:102C10006068B0F5803F10D0B0F5A02F286810D0C4
:102C200020F480302860286820F4802028606068C4
:102C3000A8B1FFF713FC06460DE0286840F4803089
:102C4000F4E740F480202860F7E700BFFFF706FCB8
:102C5000801B642873D828688003F7D50CE0FFF741
:102C6000FDFB064605E000BFFFF7F8FB801B64286C
:102C7000F0D828688003F7D42078DFF8AC8280078A
:102C80004FF0000A3ED5A748001D016811F00C0F57
:102C900008D00068C0F3810002280BD1D9F80000E9
:102CA000400207D42868800716D5E068012800D1C3
:102CB00012E033E1E068B8B10120C8F80000FFF786
:102CC000CDFB064605E000BFFFF7C8FB801B0228CE
:102CD000C0D828688007F7D52868216920F0F80057
:102CE00040EAC10028600DE0C8F800A0FFF7B6FB7D
:102CF000064604E0FFF7B2FB801B02281FD82868B5
:102D00008007F7D42078000722D5864F874861696D
:102D1000703771B101210160FFF7A0FB064604E0A6
:102D2000FFF79CFB801B022809D838688007F7D57D
:102D30000EE0C0F800A0FFF791FB064605E082E038
:102D4000FFF78CFB801B02287DD838688007F7D4FA
:102D50002078400768D5DFF8CCB100270BF13C0B99
:102D6000DBF80000C0000BD4DBF8001041F080510C
:102D7000CBF80010DBF80000012700F08050009035
:102D80006B4E3068C00510D4306840F480703060FD
:102D9000FFF764FB009005E0FFF760FB0099401A25
:102DA000022850D83068C005F6D55E4EA0686C3653
:102DB00001280FD00528306810D020F001003060C5
:102DC000306820F004003060A068B8B1FFF746FB1F
:102DD00000900FE0306840F00100F4E740F004009C
:102DE0003060F7E7FFF73AFB0099411A41F288306B
:102DF000814266D830688007F4D50EE0FFF72EFBDD
:102E0000009007E0FFF72AFB0099411A41F2883051
:102E1000814256D830688007F4D42FB1DBF8001017
:102E200021F08051CBF80010A069C8B33D49091DBD
:102E30000968C1F3810102294AD00228504607D00F
:102E4000C8F8600000E03CE0FFF708FB04463BE008
:102E50004746C8F86000FFF701FB064605E000BFE3
:102E6000FFF7FCFA801B02282BD828688001F7D4D2
:102E7000D4E907010843A16A2E4A490802EB01413F
:102E8000626A41EA8211084394F82C1040EA016119
:102E9000C9F8001001203866FFF7E0FA044606E0A2
:102EA0003EE000BFFFF7DAFA001B022809D82868C5
:102EB0008001F7D534E000BFFFF7D0FA001B0228ED
:102EC00002D90320BDE8F88F28688001F4D427E0F8
:102ED0000128F7D0D9F80000E26900F4800191429E
:102EE0001CD1226A00F03F01914217D147F6C07110
:102EF000626A0140B1EB821F10D1A26A4FF0FF332A
:102F000000F4403103EB5202B1EB024F06D194F8CA
:102F10002C1000F07060B0EB016F01D00120D1E700
:102F20000020CFE70438024000004742800E4742AD
:102F3000007000400000FFFF70470068503050F8FC
:102F4000210070470068503040F821207047017F11
:102F5000012916D001210177022242770368CA2293
:102F60005A62036853225A620268936843F020034E
:102F700093600368FF225A62417700210177084677
:102F8000704702207047704710B50446006881689A
:102F9000C9040CD5C068C00509D52046FFF7F3FF6A
:102FA0002068C16801F0800161F4C071C1602068CF
:102FB000816889040CD5C068800509D52046FFF7D3
:102FC000BBFF2068C16801F0800161F42071C1601D
:102FD00003494FF4003008600120607710BD000005
:102FE000143C014010B500680B4641680D48014093
:102FF000080CD870C1F304245C7001F03F049C708D
:10300000C1F34231197052B901F084F9D87058787F
:1030100001F080F95870987801F07CF998700020E0
:1030200010BD00003FFFFF0010B50B460168896A24
:10303000596001680969C1F30E019960006801686F
:103040000D480140C1F305401870C1F306245C70BF
:1030500001F07F049C70890DD97052B901F05AF9C2
:103060001870587801F056F95870987801F052F9B4
:103070009870002010BD00007F7F7F0010B5040015
:1030800002D0607F10B106E0012010BD0020207743
:10309000204600F039F8022060772168CA20486293
:1030A000216853204862204601F04AF930BB20686D
:1030B0008168144A11408160216888686268104301
:1030C000D4E904231A43104388602168E06808614A
:1030D00020680169228941EA02410161204601F02C
:1030E00053F958B921680A6C22F480220A642168D5
:1030F0000A6CA3691A430A64012161772268FF21DF
:10310000516210BDBFFF8FFF1FB5002100910191DB
:103110000291039100680C49884214D1022000906A
:10312000000203906846FFF7C7FB08B1FEF73BFEBD
:10313000064901200860002211462920FFF78AFB7A
:103140002920FFF779FB1FBD002800403C0E4742B5
:1031500070B50446007F0B46012819D0012626775A
:1031600002206077B2B19878D97840EA0145587862
:103170001978000240EA413005432168CA204862BC
:10318000216853204862204601F0DAF8D0B122E0ED
:10319000022070BD5878C10603D500F0EF000A3058
:1031A0005870D87801F0BFF80204587801F0BBF8E5
:1031B00042EA0022987801F0B6F80243187842EA11
:1031C0004035DAE70748054020684560204601F0B1
:1031D000DBF800B966772268FF2151620021217770
:1031E00070BD00003FFFFF002DE9F0410446007F65
:1031F0000D46012823D04FF0010884F81C800220DE
:1032000060772068002780684FEA4060D2B10028CC
:1032100000DBEF70A878297840EA01466878E97801
:10322000000240EA815006432168CA2048622168B2
:1032300053204862204601F083F8B8B12CE0022008
:10324000BDE8F081002800DBEF70287801F06BF812
:103250000204687801F067F842EA0022A87801F0D9
:1032600062F80243E87842EA8056DDE70D480640FE
:10327000206806602068816821F480218160D5E99A
:103280000301084321688A6810438860204601F0E2
:103290007BF808B984F81D802268FF2151622777E6
:1032A000CEE700007F7F7F0070B504460068C168EC
:1032B00021F0A001C160FFF7D1F805464FF47A76FE
:1032C00007E000BFFFF7CAF8401BB04201D9032056
:1032D00070BD2068C0688006F4D5002070BD10B5B0
:1032E000401EB0F1807F01D3012010BD4FF0E024DB
:1032F00060610F21601701F00AFC0020A061072027
:103300002061002010BD70477047000070B590F834
:103310003C20012A32D0012480F83C40022280F86F
:103320003D2003685A689D6822F070060A6832439F
:103330005A60134B02689A4214D0B2F1804F11D0F8
:10334000104B9A420ED0104B9A420BD00F4B9A4220
:1033500008D00F4B9A4205D00E4B9A4202D00E4B2A
:103360009A4204D1496825F080031943916080F89E
:103370003D40002180F83C10084670BD022070BD21
:10338000000001400004004000080040000C004024
:1033900000040140004001400018004010B5040046
:1033A00003D094F83D0010B107E0012010BD0020CB
:1033B00084F83C00204600F01FF8022084F83D000D
:1033C000211D206801F052F8012084F8460084F89D
:1033D0003E0084F83F0084F8400084F8410084F8FF
:1033E000420084F8430084F8440084F8450084F8DF
:1033F0003D00002010BD000008B501681048B1F183
:10340000804F0BD00F4A914207D1016841F0020171
:103410000160006800F00200009008BD016841F002
:10342000010101600068002200F0010000901146D7
:103430001C20FFF70FFABDE808401C20FFF7FCB97D
:10344000403802400004004090F83D10012901D0AE
:1034500001207047022180F83D100168CA6842F0DF
:103460000102CA6000681149884214D0B0F1804F4F
:1034700011D00F4988420ED00E4988420BD00E4918
:10348000884208D00D49884205D00D49884202D0B3
:103490000C49884204D1816801F00701062903D054
:1034A000016841F001010160002070470000014007
:1034B0000004004000080040000C004000040140EF
:1034C000004001400018004070B5044690F83C00F0
:1034D0000025012817D0012684F83C60022084F8DA
:1034E0003D002068826822F0770222F47F428260E9
:1034F0000868502838D00DDC20284FD005DC90B368
:10350000102811D14AE0022070BD302846D0402852
:103510000AD13BE060282FD070280DD0B0F5805F35
:1035200003D0B0F5005F12D0012584F83D60002083
:1035300084F83C00284670BDCB68D1E901212068A1
:1035400001F005F82068816841F0770109E0CB6857
:10355000D1E90121206800F0FAFF2068816841F478
:1035600080418160E1E719E0CA684968206801F09C
:10357000C3F85021206806E0CA684968206801F055
:10358000CCF86021206800F0ECFFCEE7CA684968FB
:10359000206801F0B1F840212068F4E72268014674
:1035A0001046F0E7704770B50446006801694FF0B7
:1035B0000005C943890715D4C168C943890711D4D7
:1035C000E91E01610120207720688069800720467C
:1035D00002D0FFF7E7FF04E000F0C0F8204600F05B
:1035E00052F9257720680169C943490717D4C16892
:1035F000C943490713D46FF0040101610220207709
:103600002068806910F4407F204602D0FFF7CAFF8F
:1036100004E000F0A3F8204600F035F92577206893
:103620000169C943090716D4C168C943090712D4FF
:103630006FF008010161042020772068C0698007CD
:10364000204602D0FFF7AEFF04E000F087F82046E6
:1036500000F019F9257720680169C943C90617D414
:10366000C168C943C90613D46FF010010161082075
:1036700020772068C06910F4407F204602D0FFF711
:1036800091FF04E000F06AF8204600F0FCF825778E
:1036900020680169C943C90708D1C168C943C9077E
:1036A00004D1891E0161204600F052F920680169A9
:1036B000C943090609D4C168C943090605D46FF096
:1036C000800101612046FFF71EFE20680169C943A1
:1036D000490609D4C168C943490605D46FF04001C1
:1036E0000161204600F03BF920680169C943890661
:1036F0000BD4C168C943890607D46FF0200101616A
:103700002046BDE87040FFF7FFBD70BD10B586B024
:10371000044614216846FCF7FBFF0D4920688842E7
:1037200014D10C480021026842F0040202600068D3
:1037300000F004000590402000900220CDE9010136
:10374000CDE9031069460448FEF78AFD06B010BDB6
:10375000000400403038024000080240704770B555
:10376000044690F83C0000260D4601280FD00120A9
:1037700084F83C006AB1042A1DD0082A2FD00C2AF4
:103780003FD00126002084F83C00304670BD022066
:1037900070BD206800F0EEFE2068816941F00801EC
:1037A00081612068816921F004018161206881695B
:1037B0002A69114311E0206800F00CFF206881693C
:1037C00041F4006181612068816921F48061816137
:1037D000206881692A6941EA02218161D2E7206873
:1037E00000F02EFF2068C16941F00801C161206826
:1037F000C16921F00401C1612068C1692A691143CE
:1038000011E0206800F050FF2068C16941F40061B8
:10381000C1612068C16921F48061C1612068C1690A
:103820002A6941EA0221C161ACE710B5040003D066
:1038300094F83D0010B107E0012010BD002084F88D
:103840003C00204600F01EF8022084F83D00211DB7
:10385000206800F00BFE012084F8460084F83E004A
:1038600084F83F0084F8400084F8410084F8420066
:1038700084F8430084F8440084F8450084F83D004F
:10388000002010BD7047704710B50446022249B1B0
:1038900004290ED0082913D094F84100012816D02D
:1038A000012010BD94F83E000128F9D184F83E2093
:1038B0000FE094F83F000128F2D184F83F2008E09F
:1038C00094F840000128EBD184F8402001E084F80E
:1038D00041200122206800F02DFE16492068164A7A
:1038E000884201D0904203D1436C43F400434364C7
:1038F0002068884213D0B0F1804F10D00F49884221
:103900000DD00F4988420AD00E49884207D0904214
:1039100005D00D49884202D00C49884204D1816803
:1039200001F00701062903D0016841F0010101609F
:10393000002010BD000001400004014000040040D0
:1039400000080040000C004000400140001800400A
:103950000068B0F1804F01D103F05EB97047704745
:1039600070477047F8B5016804460868CA684B6933
:1039700010F00F0F4FF0000559D003F0010602F4CC
:103980009077374365D0C10705D0D10503D5216CA9
:1039900041F001012164410705D5D90703D0216C0D
:1039A00041F002012164810705D5D90703D0216CBC
:1039B00041F004012164010707D502F020013143E1
:1039C00003D0216C41F008012164216C00293AD018
:1039D000800604D5900602D5204600F0DFFE206860
:1039E0004069216CC0F38010090700D460B3204601
:1039F00000F0ADFE20684069400621D520681430F3
:103A000050E8001F21F0400140E80012002AF5D1E3
:103A1000A06BA8B16C490165A06BFEF7B9FA00284C
:103A200011D0A06B016D01B0BDE8F04008478306DE
:103A30000FD593060DD52046BDE8F84000F0AEBE88
:103A40002046FFF78EFFF8BD2046FFF78AFF25646A
:103A5000F8BD266B2023012E79D1C60677D5D60670
:103A600075D50868486800904869400640D5A16B44
:103A7000086840680004000CEAD0A28D8242E7D9B1
:103A8000E085C869B0F5807F2DD020680C3050E803
:103A9000001F21F4807140E80012002AF5D120684F
:103AA000143050E8001F21F0010140E80012002A04
:103AB000F5D12068143050E8001F21F0400140E8A3
:103AC0000012002AF5D184F83E30256320680C30BE
:103AD00050E8001F21F0100140E80012002AF5D143
:103AE000A06BFEF70CFAA08DE18D401A81B229E09F
:103AF000A08DE18D401A81B2E08D0028A8D0002968
:103B0000A6D020680C3050E8002F22F4907240E8D4
:103B10000026002EF5D12068143050E8002F22F046
:103B2000010240E80026002EF5D184F83E302563DE
:103B300020680C3050E8002F22F0100240E80023EB
:103B4000002BF5D12046FFF70BFFF8BDFFE7050678
:103B50002BD5150629D594F83D002128F5D1A0686C
:103B6000B0F5805F01D12069B0B1206A411C2162AB
:103B7000216800784860E08C401E0004000CE0845E
:103B8000E3D12068C16821F08001C1602068C1686C
:103B900041F04001C160D8E7206A0088C0F3080006
:103BA0004860206A801C2062E5E74006CDD55006BB
:103BB000CBD5CA68204622F04002CA6084F83D3066
:103BC00000F0F2F8C1E700003F47000870B50400BC
:103BD00004D094F83D00002510B106E0012070BD2E
:103BE00084F83C50204600F023F8242084F83D005F
:103BF0002068C16821F40051C160204600F02EFE0B
:103C00002068016921F4904101612068416921F037
:103C10002A0141612068C16841F40051C1602564F6
:103C2000202084F83D0084F83E00002070BD000094
:103C300010B586B0044614216846FCF769FD1849A2
:103C40002068884229D117480021026842F01002FA
:103C50000260006800F010000590124814380268F5
:103C600042F001020260006800F0010005904FF48C
:103C7000C06000900220CDE90101032003900720DD
:103C8000049069460848FEF7EBFA0022012125203E
:103C9000FEF7E0FD2520FEF7CFFD06B010BD0000C9
:103CA00000100140443802400000024090F83E30CD
:103CB000202B0ED159B152B190F83C30012B08D0D5
:103CC000012380F83C300023036300F04DBE012047
:103CD000704702207047000070B5314E3148A6F1A0
:103CE000110432780D2A04D0416A6254491C4162A1
:103CF0004EE0002545626178A278303901EB8103FE
:103D00006FF02F0101EB43031A44C274E278237968
:103D1000303A02EB820201EB42021A4402756279E8
:103D2000A379303A02EB820201EB42021A44427557
:103D3000E279237A303A02EB820201EB42021A4422
:103D4000C275627AA37A303A02EB820201EB420238
:103D50001A440276627BA37B303A02EB820201EBCB
:103D6000420119444176E17B30398175217CA1F112
:103D700030028276302901D100F066FE0020255401
:103D8000401C1128FBD300203554401C0F28FBD3C6
:103D9000BDE8704002490122A1F1E500FFF786BFAE
:103DA000B9710020000000207047FEE701684A69F1
:103DB000D24352050FD46FF480624A61002140F86B
:103DC000301F202242738173026942F004020261B3
:103DD000017301207047002070470000F8B50446C9
:103DE000C06A1E460D461746082807D0012805D090
:103DF00010F5803F02D0206B122804D120680168A2
:103E000041F480710160134600224FF001112046F9
:103E1000009600F057F840B120680068C00502D550
:103E20004FF4007020640320F8BD2069B0F5804F86
:103E30000ED00620216800EAD51040F0F00008619D
:103E400033463A460B49204600F070F878B902E054
:103E500005F0FE0000E0E8B221680861054933463C
:103E60003A46891F204600F061F80028DCD0012086
:103E7000F8BD00000800010070B516460D46044666
:103E80000DE02046FFF792FF08B1012070BD681CCD
:103E900005D0FEF7E3FA801BA84207D835B12068A9
:103EA0004069C0434007ECD4002070BD002044F8B6
:103EB000300F20216173A073216941F0200121613D
:103EC0002073E2E72DE9F0471E4690460D46044672
:103ED000C1F30747DDF8209008E0701C06D0FEF71C
:103EE000BDFAA0EB0900B0420FD876B12068012FCF
:103EF00018D0806925EA00000004000C14D00021CD
:103F00004145EAD00020BDE8F087002044F8300F9A
:103F100020216173A073216941F020012161207388
:103F20000120F0E74069E5E70121E9E72DE9F047E5
:103F30009A4691460E46044600254FF02008C1F3EC
:103F4000074725E020684069C043400514D4206835
:103F5000016841F40071016021686FF4806048617C
:103F6000256384F83D8084F83E50206C40F00400C6
:103F7000206484F83C501FE0B9F1FF3F08D0FEF701
:103F80006DFAA0EB0A0149450CD8B9F1000F09D030
:103F90002068012F13D0806926EA00000004000C7D
:103FA0000BD0CFE744F8305F84F80D80A57320690B
:103FB00040F02000206125730120BDE8F0874069B2
:103FC000EAE770B516460D4604460DE02046FFF7B9
:103FD000EDFE08B1012070BD681C05D0FEF73EFA69
:103FE000801BA84207D835B120684069C04300064D
:103FF000ECD4002070BD002044F8300F2021617304
:10400000A073216941F0200121612073E2E70000E3
:104010002DE9F04F87B014216846FCF779FB514831
:104020000025016841F010010160016801F01001F4
:104030000591016841F080010160016801F0800193
:104040000591016841F002010160016801F002017F
:104050000591016841F001010160016801F0010171
:104060000591016841F00401016000684FF4805738
:1040700000F004000590002239463B48FEF7E8F9BD
:104080001C2000904FF404100124CDE90104DFF856
:10409000DCA069465046FEF7E3F84FF48818DFF8D5
:1040A000D0B0CDE900480226694658460296FEF790
:1040B000D7F80097CDE9014569462B480395FEF7EF
:1040C000CFF80022BE215846FEF7C2F949F68079A2
:1040D000002249465046FEF7BBF9BE2003278DE873
:1040E000B10069465846FEF7BBF801AACDF800902A
:1040F00082E8B00069465046FEF7B2F8E002CDE92A
:1041000000060295CDE9037469461748FEF7A8F842
:10411000CDE90048694658460296FEF7A1F800220C
:1041200002210920FEF796FB0920FEF785FB0022FD
:1041300002210A20FEF78EFB0A20FEF77DFB0022FB
:1041400002210620FEF786FB0620FEF775FB002203
:1041500002210820FEF77EFB0820FEF76DFB07B06A
:10416000BDE8F08F303802400004024000100240E9
:104170000000024070B5174C15487F2101C4002093
:10418000FF2523C444F810096061A0611148FEF7BF
:1041900075FF08B172B6FEE743F2F22632460121FE
:1041A0000C48FEF7CFFE01210A48FEF7C6FEB042DA
:1041B0000DD02068CA214162532141620548FEF7B3
:1041C000C6FE20684562BDE8704001F0DDBF70BDED
:1041D00000280040B470002010B586B000241648B6
:1041E000009401940294039404944FF08041059448
:1041F00001601421C0E9011440F25721C0E9031401
:104200008461FFF7CBF808B172B6FEE74FF4805037
:10421000009069460848FFF757F908B172B6FEE703
:10422000049404A904480594FFF770F8002801D00D
:1042300072B6FEE706B010BD1871002010B58EB042
:1042400000240794089409940A940B941C2168464E
:104250000C94FCF75DFA1E481C4901605321C0E92B
:10426000011440F2E731C0E903148461FFF796F8C6
:1042700008B172B6FEE74FF48050079007A91448C2
:10428000FFF722F908B172B6FEE71148FFF7CDFA41
:1042900008B172B6FEE70B940BA90D480C94FFF71A
:1042A00035F808B172B6FEE76020CDE9000402944B
:1042B0000022694606480494FFF751FA08B172B625
:1042C000FEE70348FFF722FA0EB010BD00040040DD
:1042D00060710020FEE7000010B501F07FFC084887
:1042E000C07828B1012807D0BDE8104001F004B91A
:1042F000BDE8104001F074BDBDE8104001F066B9A2
:1043000000000020FEE770470148FEF73DBE0000B8
:10431000B4700020010901EB810100F00F0000EBF7
:104320004100C0B27047002103E0491C0A38C9B2FD
:10433000C0B20A28F9D2090740EA116070470000AC
:104340002DE9F041044600680025C168490618D4EB
:10435000C16841F08001C160FEF780F806464FF465
:104360007A78042707E000BFFEF778F8801B404505
:1043700001D9677701252068C068400601D4002D67
:10438000F2D02846BDE8F08170B5044600680025EB
:10439000C16821F08001C16020688068800606D471
:1043A0002046FEF781FF10B10420607701252846E2
:1043B00070BD7047FEF7E6B930B593B0302168465E
:1043C000FCF7A6F914210CA8FCF7A2F91E4800245A
:1043D000016841F080510160006800F08050119048
:1043E0001A48016841F4804101600068102100F41E
:1043F000804011900A2000900120CDE903010225A0
:10440000CDE905050820CDE90740A820CDE909053B
:1044100004200B906846FEF7D9FB08B172B6FEE7A0
:104420000F20CDE90C054FF4A050CDE90E404FF41C
:104430008050109005210CA8FEF7DCFA002801D06E
:1044400072B6FEE713B030BD403802400070004045
:104450000248016841F470010160704788ED00E096
:104460000148FFF7A0B8000018710020F0B50268FD
:10447000254C264D264E274F274B4FF0804CA0420F
:1044800009D0604507D0A84205D0B04203D0B84259
:1044900001D0984204D122F0700E4A6842EA0E021E
:1044A000A0421BD0604519D0A84217D0B04215D009
:1044B000B84213D0984211D0184DA8420ED0184DD2
:1044C000A8420BD0174DA84208D0174DA84205D0DE
:1044D000164DA84202D0164DA84203D122F44075D1
:1044E000CA682A434D6922F080022A4302608A6822
:1044F000C2620A688262A04201D0984201D1096971
:10450000016301214161F0BD000001400004004051
:1045100000080040000C0040000401400040014041
:10452000004401400048014000180040001C0040C9
:104530000020004010B501F01F030121046A9940DA
:104540008C430462016A9A401143016210BD10B5A8
:10455000846842EA032224F47F440A4322438260AF
:1045600010BD826822F070020A4342F007018160A8
:1045700070470000F0B5026A22F001020262036A8D
:1045800042688469124E24F073050C682C4323F0B2
:1045900002058B682B430D4DA84201D0B04205D1D6
:1045A00023F00807CB683B4323F00403A84201D063
:1045B000B04205D14D6922F4407215438A692A43FD
:1045C00042608461496841630362F0BD00000140BC
:1045D00000040140F0B5026A22F010020262026A91
:1045E000436884690D6824F4E64444EA05248D6830
:1045F00022F0200242EA05120F4D104EA84201D0CF
:10460000B04206D1CF6822F0800242EA071222F0BF
:104610004002A84201D0B04207D14D6923F4406363
:1046200043EA85038D6943EA8503436084614968F1
:1046300081630262F0BD00000000014000040140FF
:10464000F0B5026A22F480720262026A4368C469A9
:1046500022F4007224F073050C68124E2C438D680E
:1046600042EA05220E4DA84201D0B04206D1CF68E1
:1046700022F4006242EA072222F48062A84201D0BA
:10468000B04207D14D6923F4405343EA05138D69C5
:1046900043EA05134360C4614968C1630262F0BD27
:1046A000000001400004014030B5026A22F480524B
:1046B0000262046A4268C3690D6823F4E64343EA70
:1046C00005238D6824F4005444EA0534084DA842BB
:1046D00002D0084DA84204D14D6922F4804242EA3A
:1046E00085124260C36149680164046230BD000004
:1046F000000001400004014010B5036A046A24F080
:1047000001040462846924F0F00444EA021423F0F2
:104710000A020A438461026210BD10B5036A23F0E5
:10472000100303628369046A23F4704343EA02328C
:1047300024F0A00343EA01118261016210BD10B5AB
:10474000806B0021C185C184FFF70BF910BD0168A2
:104750000C3151E8002F22F4907241E80023002B25
:10476000F5D10168143151E8002F22F0010241E82F
:104770000023002BF5D1016B012909D101680C310F
:1047800051E8002F22F0100241E80023002BF5D160
:10479000202180F83E1000210163704708B590F891
:1047A0003E10222901D0022008BD82684FF48053B8
:1047B0009A4201D1016921B1816A9A421BD04AB162
:1047C0000AE00268816A5268C2F308020A80816ABC
:1047D000891C08E0026972B10268526802F07F0227
:1047E0000A70816A491C8162C18D491E0904090C45
:1047F000C18503D019E002685268F1E70168CA6810
:1048000022F02002CA600168CA6822F48072CA607D
:1048100001684A6922F001024A61202180F83E10B5
:10482000016B012903D0FFF757FA002008BD0021D2
:10483000016301680C3151E8002F22F0100241E8B9
:104840000023002BF5D101680A68D20602D50A6858
:1048500049680091818DFFF783F8E6E770B504465B
:1048600000680169E26821F4405111430161216946
:10487000A068E26908436169114308432168CA6876
:1048800049F20C639A430243CA6020684169A269F5
:1048900021F440711143416131492068884202D0BE
:1048A0003049884202D1FEF74FF901E0FEF73CF9AA
:1048B000E2690023192164253226B2F5004F6268AF
:1048C00028D0A0FB0101930F9200FBF723FD0146C6
:1048D000B0FBF5F06FF01802504301EB800006EBDF
:1048E0000010B0FBF5F000F0F002B1FBF5F002EBC8
:1048F0000012B1FBF5F06FF01803584301EB800094
:1049000006EB0010B0FBF5F000F00F00216810443A
:10491000886070BDA0FB010192185B41FBF7FAFCB7
:104920000146B0FBF5F00201B1FBF5F06FF01803A2
:10493000584301EB800006EBC000B0FBF5F000F03F
:10494000F80002EB4002B1FBF5F0584301EB8000A8
:1049500006EBC000B0FBF5F000F00700D6E7000062
:10496000001001400014014081628285C28500214F
:104970000164222280F83E2080F83C10016921B1B8
:104980000168CA6842F48072CA6001684A6942F0EC
:1049900001024A610068C16841F02001C160002045
:1049A000704700000148FEF7DDBF0000D470002012
:1049B00010B5224922488B7890F90720934212D1F2
:1049C0004B7890F90620934214D10B7890F905208A
:1049D000934201D00A701CE0194990F908203C313B
:1049E0008B78934201D08A7013E04B7890F90920BC
:1049F000934201D04A700CE0CB7890F90A209342A0
:104A000001D0CA7005E00A7890F90B00824200D00C
:104A100008700A490022A1F58A70FEF7E5FB08B18B
:104A200072B6FEE7064900223C310648FEF790FBCD
:104A3000002801D072B6FEE710BD0000C87100204A
:104A400000000020B470002010B5214921488B7867
:104A500090F91520934200D08A704B7890F9142079
:104A6000934200D04A700B7890F91320934200D003
:104A70000A70184990F917203C318B78934200D086
:104A80008A704B7890F91820934200D04A70CB7806
:104A900090F91920934200D0CA700A7890F9160054
:104AA000824200D008700A490022A1F58A70FEF700
:104AB0009BFB08B172B6FEE7064900223C3106486E
:104AC000FEF746FB002801D072B6FEE710BD0000DD
:104AD000C871002000000020B4700020FEE703B47D
:104AE00001984100009850EAC12018BF04204A0DE7
:104AF00018BF40F0010040F2FF72B2EB515F08BFF7
:104B000040F00200012808BF052002B070470907E5
:104B1000090E002804DB00F1E02080F80014704743
:104B200000F00F0000F1E02080F8141D7047000035
:104B300010B52F499FED2C1B2DED020B84B005986D
:104B400020F000408842D8BF9DED040B2DDD29499F
:104B5000884209D1049840B94FF00100FBF707FEE5
:104B600000F0A2FC06B010BD05DB9DED040B00F0CB
:104B70008FFC06B010BD68469DED040B00F0A0F858
:104B800010F0030004BF9DED021B9DED000B0CD047
:104B900001280ED09DED021B9DED000B022817D0C1
:104BA000012000F0DDFB06B010BD00F0A5FA06B054
:104BB00010BD9DED021B9DED000B012000F0D0FB10
:104BC00051EC100B02F0AEF806B041EC100B10BD2A
:104BD00000F092FA51EC100B02F0A4F806B041EC90
:104BE000100B10BD000000000000000000000000DD
:104BF000FB21E93F0000F07F10B52F499FED2C1BF2
:104C00002DED020B84B0059820F000408842DCBFF7
:104C100000209DED040B32DD2849884209D104981B
:104C200040B94FF00100FBF7A2FD00F03DFC06B0DB
:104C300010BD05DB9DED040B00F02AFC06B010BD95
:104C400068469DED040B00F03BF810F0030011D016
:104C5000012818D09DED021B9DED000B02281AD0F3
:104C600000F04AFA51EC100B02F05CF806B041EC8F
:104C7000100B10BD9DED021B9DED000B012000F0FF
:104C80006FFB06B010BD9DED021B9DED000B00F00B
:104C900033FA06B010BD012000F062FB51EC100B9E
:104CA00002F040F806B041EC100B10BD000000000F
:104CB0000000000000000000FB21E93F0000F07F41
:104CC0002DE9F14F04462DED020B2DED088B8AB036
:104CD0009FEDE70B80ED020B139EE74826F00045A1
:104CE00085420ADC9DED120B002084ED000B0AB01A
:104CF000BDEC088B03B0BDE8F08FE0489FEDE0AB62
:104D00009FEDE1BBA84247DDE14F9FEDE39B9FEDA7
:104D1000E48B9DED120B53EC1A2B51EC100B002E73
:104D20001CDD02F06FFB41EC100BBD4208D053ECD0
:104D30001B2B51EC100B02F065FBC4E900010BE0EA
:104D400053EC192B51EC100B02F05CFB53EC182BBD
:104D500002F058FBC4E900010120C8E701F0EEFFB2
:104D600041EC100BBD4208D053EC1B2B51EC100B47
:104D700001F0E4FFC4E900010BE053EC192B51EC06
:104D8000100B01F0DBFF53EC182B01F0D7FFC4E947
:104D900000014FF0FF30AAE7C348A84279DB9DED40
:104DA000120B51EC100B00F0D1FC41EC180B9FEDF5
:104DB000C00B53EC102B02F01BFA9FEDBF1B53EC02
:104DC000112B01F0BBFF02F0B9F9074602F0E5F93B
:104DD00041EC190B53EC1A2B02F00AFA53EC182B86
:104DE00002F004FB41EC180B53EC1B2B51EC190B9C
:104DF00002F0FEF9DFF8C8A241EC100B4FEA15589B
:104E00000125FA4453EC102B51EC180B02F0FAFA7E
:104E1000032DC4E900013DD0C1F30A5005EB451153
:104E2000A8EB00001139814234DA0AEB051BB0EE21
:104E300048AA9BED000BF0EE68AA53EC102B51EC46
:104E4000190B02F0D5F941EC1B0B51EC1A0B53EC8A
:104E50001B2B02F0D7FA41EC180B51EC1A0B53EC58
:104E6000182B02F0CFFA53EC1B2B02F0CBFA9BED80
:104E7000020B41EC1A0B53EC102B51EC190B02F006
:104E8000B7F953EC1A2B02F0BDFA41EC100B6D1C74
:104E9000B8E70EE0002EA8BF3846BFF628AF94ED65
:104EA000000B51EC100B01F03DFFC4E9000178420A
:104EB0001DE7C6F3130040F4801EC6F30A50A0F2AB
:104EC000F530471100F01F05C5F12000DDF848B0AE
:104ED00008900020069007900520EC467949002DA7
:104EE00007EB0002794408BF51F8221009D051F8AD
:104EF000223001EB8201AB404A68089922FA01F1A5
:104F00001943A1FB0E26A1FB0B131A449A4234BF8E
:104F10000123002303EB06080CEB8003D3E901A671
:104F20000E448E4234BF0121002192448A4411B1C3
:104F3000924502D903E0924501D2012100E000210F
:104F4000C3E901A641444CF82010011EA0F1010064
:104F5000C4DC029800F10050850F0298DDE9036778
:104F60008000DDF8148002F018F941EC1A0B30468D
:104F700002F02AF99FED541B53EC112B02F038F983
:104F800041EC1B0B384602F01FF99FED511B53EC0F
:104F9000112B02F02DF941EC180B404602F014F9E8
:104FA0009FED4D1B53EC112B02F022F941EC190B34
:104FB00051EC180B53EC192B01F0C0FE53EC1B2BDA
:104FC00001F0BCFE53EC1A2B01F0B8FECDE908014C
:104FD000002008909DED080B53EC1A2B51EC100BA0
:104FE00002F010FA53EC1B2B02F00CFA53EC182BC6
:104FF00002F008FA53EC192B02F0F8F99FED381B78
:1050000053EC112B02F0F4F89FED370B41EC180B29
:1050100053EC102B9DED080B51EC100B02F0E8F84F
:1050200053EC182B01F08AFE9FED310B41EC180B6D
:1050300053EC102B9DED080B51EC100B02F0D8F83F
:1050400053EC182B01F07AFE41EC100B139810F082
:10505000004F06D06D4251EC100B01F063FE41ECA5
:10506000100B284684ED000B41E600000000000014
:105070000000000000000000FB21E93F7CD9024055
:1050800000004054FB21F93F3163621A61B4D03D06
:10509000FB21F93F000000000000601A61B4D03D20
:1050A0007370032E8A19A33BFB21394100000000D5
:1050B00083C8C96D305FE43F000000000000E03F9E
:1050C000B22B0000002B0000000000000000103E8A
:1050D000000000000000103C000000000000103A3A
:1050E000182D4454FB21F93D3326A611460B113CE3
:1050F00000000054FB21F93D10B52DED040B2DED02
:10510000088B82B0B0EE419AF0EE619A0B9820F0D5
:1051100000449FED4BABB4F1795F11DA9DED0A0BC2
:1051200051EC100B02F00AF8002801BFB0EE4A0A59
:10513000F0EE6A0A02B0BDEC088B04BF04B010BDEB
:105140009DED0A0B53EC102B51EC100B02F050F8B4
:1051500041EC180B3C480621B0EE480AF0EE680A14
:10516000784400F081F853EC182B51EC100B02F04E
:105170003FF89DED0A0B41EC1B0B53EC192B51EC46
:10518000100B02F035F841EC190B53EC1B2B51ECD2
:10519000180B02F02DF853EC192B02F033F99FEDA8
:1051A0002C0B41EC190B53EC102B51EC180B02F0AB
:1051B0001FF841EC100B2848844210DA53EC192BED
:1051C00051EC100B02F01EF953EC1A2B02F00EF901
:1051D00041EC100B02B0BDEC088B04B010BD1F48B1
:1051E000A042BCBF9FED1E1B8DED001B06DBA4F58E
:1051F00000100190002000909DED001B51EC100B61
:1052000053EC112B02F0FEF89DED000B41EC180B56
:1052100053EC102B51EC1A0B02F0F4F841EC1A0B82
:1052200053EC192B51EC180B02F0ECF853EC1A2B41
:1052300002F0DCF841EC100BCCE7000000000000AD
:10524000000000000000F03F2428000000000000E3
:10525000000000000000E03F3333D33F0000E93F8F
:10526000000000000000D23F70B504462DED028B17
:105270004D1E00EBC500B0EE408AF0EE608A90ED66
:10528000000B35F0060017D053EC182B51EC100B27
:1052900001F0AEFF41EC100B6D1E04EBC50090ED6C
:1052A000001B51EC100B53EC112B01F047FD41ECAE
:1052B000100B35F00600E7D1022D36D0042D1CD09E
:1052C000062D1CBFBDEC028B70BD53EC182B51ECAE
:1052D000100B01F08DFF94ED0A1B53EC112B01F024
:1052E0002DFD53EC182B01F083FF94ED081B53ECBC
:1052F000112B01F023FD41EC100B53EC182B51EC5A
:10530000100B01F075FF94ED061B53EC112B01F00F
:1053100015FD53EC182B01F06BFF94ED040B53ECCF
:10532000102B01F00BFD41EC100B53EC182B51EC42
:10533000100B01F05DFF94ED021B53EC112B01F0FB
:10534000FDFC53EC182B01F053FF94ED001B53ECC4
:10535000112B01F0F3FCBDEC028B41EC100B70BD86
:1053600031B504462DED040B2DED0A8BB0EE41BA9C
:10537000F0EE61BA0B989DED0A0B20F00040B0F101
:10538000795F0DDA51EC100BFFF7A9FB042808BF79
:1053900000F09AF89DED0A0BBDEC0A8B05B030BD0C
:1053A00053EC102B51EC100B01F022FF41EC180BC9
:1053B0009DED0A0B53EC182B51EC100B01F018FF6C
:1053C00041EC190B2C48B0EE480AF0EE680A0521B2
:1053D0007844FFF749FF9FED2ACBB0EE40AAF0EEEC
:1053E00060AA9CB353EC1C2B51EC190B01F000FF8D
:1053F00041EC1C0B53EC1A2B51EC190B01F0F8FE8D
:105400009FED210B41EC190B53EC102B51EC1B0BB6
:1054100001F0EEFE53EC192B01F0F4FF53EC182BC6
:1054200001F0E6FE53EC1B2B01F0ECFF53EC1C2BC0
:1054300001F0E8FF9DED0A1B53EC112B01F0D6FFA4
:10544000BDEC0A8B05B041EC100B30BDFFE753EC0F
:105450001A2B51EC180B01F0CBFE53EC1C2B01F076
:105460006DFC53EC192B01F0C3FE9DED0A1B53ECB0
:10547000112B01F063FCE3E7AC2600000000000004
:10548000495555555555C5BF000000000000E03F87
:1054900010B553EC102B51EC100B01F04FFC41EC0C
:1054A000100B10BD000000009FED050B10B553EC74
:1054B000102B51EC100B01F0E9FC41EC100B10BD6E
:1054C00000000000000000009FED050B10B553EC3C
:1054D000102B51EC100B01F08BFE41EC100B10BDAA
:1054E000000000000000001030380A2801D201201E
:1054F00070470020704700003EB500F03FFF1F24BA
:10550000002500942B461E2221462046CDE9014568
:1055100000F028F91F21CDE9004500231D2208468F
:10552000029500F01FF9CDE900541F220023114617
:105530001046029400F016F9CDE90045002301223F
:105540001F212020029500F00DF9194D19A105F138
:10555000400095F9113095F91020FAF769FF009491
:105560000194012305F1400224210B20029400F054
:105570002BFA242100940194012311A208460294DD
:1055800000F022FA95F912200EA105F14000FAF779
:105590004FFF00940194012305F1400224212720AC
:1055A000029400F011FABDE83E4001F083BA000019
:1055B00000000020253032642D253032642D00009B
:1055C00032200000253033640000000070B5022254
:1055D0008EB00721104601F0F5FA514E51A106F1A7
:1055E000460096F90C20FAF723FF1F2402230094AB
:1055F000019406F1460219460720029400F064FA6D
:1056000000250223CDE9004548A219461B2002943B
:1056100000F05AFA02222421104601F0D3FA96F93A
:105620000D2040A106F14600FAF702FF0223CDE962
:10563000004506F1460219462420029500F044FA7E
:1056400002221421112001F0BDFA96F90E2035A195
:1056500006F14600FAF7ECFECDE90054022306F10C
:10566000460211211420029500F02EFA0222002198
:10567000232001F0A7FA02221521232001F0A2FA2B
:1056800002222A21232001F09DFA1C22284903A886
:10569000FBF70CF896F90F00411E062911D803A953
:1056A00001EB800050F8041C0AA8FAF7ABFE0F20AB
:1056B0000095CDE9015001230AAA2321092000F019
:1056C00003FA174896F9113096F9102019A14030C5
:1056D000FAF7AEFE124A00940194012340322E21C3
:1056E0000B20029400F070F900940194012314A29D
:1056F0002E212420029400F067F9094896F912201F
:1057000010A14030FAF794FE054A00940194012359
:1057100040322E212820029400F056F90EB070BDC0
:105720000000002025303264000000003A00000034
:1057300010790008253032642D253032642D0000A8
:1057400032200000253033640000000082B0CDE933
:10575000000121F0004001909DED000B02B051ECE2
:10576000100B70472DE9FF4F86B08046DDE914A687
:10577000C2F10100DDF84CB00F46002415B20FFA5B
:1057800080F90998D0B308EB040178198AB2049122
:1057900083B281B2A8EB0400CDE90260CDE900BA82
:1057A00080B200F09BF8CDF800B0CDE901A60499D5
:1057B000781B8AB283B281B2039880B200F08EF86F
:1057C00008EB050082B20490A8EB0500CDE9026069
:1057D0003919CDE900BA8BB289B280B200F07EF8F7
:1057E000CDF800B0CDE901A60498391B82B2039828
:1057F0008BB289B280B200F071F854E0FFE7E8198B
:10580000C1B2039004EB0800CDE90060C0B253467A
:105810005A4600F057FCE019C1B20290009605EB21
:1058200008000590C0B253465A4600F04BFC03985E
:105830000096C1B2A8EB04000390C0B253465A468A
:1058400000F040FC02980096C1B2A8EB050002905F
:10585000C0B253465A4600F035FC381BC1B2009620
:10586000049005985346C0B25A4600F02BFC781BB2
:105870000096C1B2059001985346C0B25A4600F056
:1058800021FC009605985346C1B203985A46C0B20F
:1058900000F018FC04980096C1B202985346C0B2BA
:1058A0005A4600F00FFCB9F1000F07DA09EB44008B
:1058B000C01C641C0FFA80F924B209E0611B09EBDB
:1058C0004100401D641C6D1E0FFA80F924B22DB2F8
:1058D000AC427FF756AF0AB0BDE8F08F2DE9FC4F20
:1058E00005464FF0010A00260C46D146AA4201D3D4
:1058F000501B00E0A81A1FFA80F8A34201D3181B1E
:1059000000E0E01A87B24FF0FF30954200D982469E
:105910009C4200D981464FF6FF70B84529D300EA72
:10592000470BABEB080007B2A7EB080000B20190F1
:105930001BE00D980090DDE90B23E1B2E8B200F026
:10594000C1FB002F06DA07EB0B0007B205EB0A00DC
:1059500085B208E00198384407B205EB0A0085B229
:1059600004EB090084B2761CB6B24645E1D9BDE825
:10597000FC8F00EA480BABEB07000FFA80F8A8EBAE
:10598000070000B201901CE00D980090DDE90B23A8
:10599000E1B2E8B200F096FBB8F1000F04DA08EBD0
:1059A0000B000FFA80F807E0019908EB01000FFAED
:1059B00080F805EB0A0085B204EB0900761C84B27E
:1059C000B6B2BE42E0D9D2E72DE9FF4F84B01C4603
:1059D000824603EB840001906CE000BFA0F130012F
:1059E00009290AD8374A00EB8001114451F8F02DFB
:1059F000029209798DF80C1009E02D2853D1314914
:105A00001031D1F822200292C98CADF80C100A286E
:105A10001BD00D281FD00AEB8400402807D305991E
:105A200001984FF0000A0844401C80B205900026FF
:105A30004FF0010B002502A8C5F10402815D0BFAAD
:105A400002F0014227D0002022E005990198084485
:105A5000401C80B205904FF0000A24E00AEB0800D9
:105A600005FB040900270EE0139800900598DDE976
:105A70001123384406FB0400C1B209F0FF0000F016
:105A800021FB7F1CFFB2A742EED308F10100C0B298
:105A90008046A042E2D36D1CEDB2042DCBD3761C20
:105AA000F6B2052EC6D30698401C06900AEB840079
:105AB0001FFA80FA0698007800288FD108B0BDE858
:105AC000F08F0000BC7800082DE9FF4F84B01D4620
:105AD0008146C3EBC500019076E0532806D23E4ACA
